{
  "contractName": "Tile",
  "abi": [
    {
      "inputs": [
        {
          "internalType": "address",
          "name": "_proxyRegistryAddress",
          "type": "address"
        }
      ],
      "stateMutability": "nonpayable",
      "type": "constructor"
    },
    {
      "anonymous": false,
      "inputs": [
        {
          "indexed": true,
          "internalType": "address",
          "name": "owner",
          "type": "address"
        },
        {
          "indexed": true,
          "internalType": "address",
          "name": "approved",
          "type": "address"
        },
        {
          "indexed": true,
          "internalType": "uint256",
          "name": "tokenId",
          "type": "uint256"
        }
      ],
      "name": "Approval",
      "type": "event"
    },
    {
      "anonymous": false,
      "inputs": [
        {
          "indexed": true,
          "internalType": "address",
          "name": "owner",
          "type": "address"
        },
        {
          "indexed": true,
          "internalType": "address",
          "name": "operator",
          "type": "address"
        },
        {
          "indexed": false,
          "internalType": "bool",
          "name": "approved",
          "type": "bool"
        }
      ],
      "name": "ApprovalForAll",
      "type": "event"
    },
    {
      "anonymous": false,
      "inputs": [
        {
          "indexed": true,
          "internalType": "uint256",
          "name": "burnedTokenId1",
          "type": "uint256"
        },
        {
          "indexed": true,
          "internalType": "uint256",
          "name": "burnedTokenId2",
          "type": "uint256"
        },
        {
          "indexed": true,
          "internalType": "uint256",
          "name": "newTokenId",
          "type": "uint256"
        }
      ],
      "name": "MergeMint",
      "type": "event"
    },
    {
      "anonymous": false,
      "inputs": [
        {
          "indexed": false,
          "internalType": "address",
          "name": "userAddress",
          "type": "address"
        },
        {
          "indexed": false,
          "internalType": "address payable",
          "name": "relayerAddress",
          "type": "address"
        },
        {
          "indexed": false,
          "internalType": "bytes",
          "name": "functionSignature",
          "type": "bytes"
        }
      ],
      "name": "MetaTransactionExecuted",
      "type": "event"
    },
    {
      "anonymous": false,
      "inputs": [
        {
          "indexed": true,
          "internalType": "uint256",
          "name": "tokenId",
          "type": "uint256"
        },
        {
          "indexed": true,
          "internalType": "uint8",
          "name": "dataToSetIndex",
          "type": "uint8"
        },
        {
          "indexed": true,
          "internalType": "bytes32",
          "name": "rgbValue",
          "type": "bytes32"
        }
      ],
      "name": "MetadataSet",
      "type": "event"
    },
    {
      "anonymous": false,
      "inputs": [
        {
          "indexed": true,
          "internalType": "address",
          "name": "previousOwner",
          "type": "address"
        },
        {
          "indexed": true,
          "internalType": "address",
          "name": "newOwner",
          "type": "address"
        }
      ],
      "name": "OwnershipTransferred",
      "type": "event"
    },
    {
      "anonymous": false,
      "inputs": [
        {
          "indexed": true,
          "internalType": "address",
          "name": "from",
          "type": "address"
        },
        {
          "indexed": true,
          "internalType": "address",
          "name": "to",
          "type": "address"
        },
        {
          "indexed": true,
          "internalType": "uint256",
          "name": "tokenId",
          "type": "uint256"
        }
      ],
      "name": "Transfer",
      "type": "event"
    },
    {
      "inputs": [],
      "name": "ERC712_VERSION",
      "outputs": [
        {
          "internalType": "string",
          "name": "",
          "type": "string"
        }
      ],
      "stateMutability": "view",
      "type": "function",
      "constant": true
    },
    {
      "inputs": [],
      "name": "_getNextTokenId",
      "outputs": [
        {
          "internalType": "uint256",
          "name": "",
          "type": "uint256"
        }
      ],
      "stateMutability": "view",
      "type": "function",
      "constant": true
    },
    {
      "inputs": [
        {
          "internalType": "address",
          "name": "to",
          "type": "address"
        },
        {
          "internalType": "uint256",
          "name": "tokenId",
          "type": "uint256"
        }
      ],
      "name": "approve",
      "outputs": [],
      "stateMutability": "nonpayable",
      "type": "function"
    },
    {
      "inputs": [
        {
          "internalType": "address",
          "name": "owner",
          "type": "address"
        }
      ],
      "name": "balanceOf",
      "outputs": [
        {
          "internalType": "uint256",
          "name": "",
          "type": "uint256"
        }
      ],
      "stateMutability": "view",
      "type": "function",
      "constant": true
    },
    {
      "inputs": [
        {
          "internalType": "address",
          "name": "userAddress",
          "type": "address"
        },
        {
          "internalType": "bytes",
          "name": "functionSignature",
          "type": "bytes"
        },
        {
          "internalType": "bytes32",
          "name": "sigR",
          "type": "bytes32"
        },
        {
          "internalType": "bytes32",
          "name": "sigS",
          "type": "bytes32"
        },
        {
          "internalType": "uint8",
          "name": "sigV",
          "type": "uint8"
        }
      ],
      "name": "executeMetaTransaction",
      "outputs": [
        {
          "internalType": "bytes",
          "name": "",
          "type": "bytes"
        }
      ],
      "stateMutability": "payable",
      "type": "function",
      "payable": true
    },
    {
      "inputs": [
        {
          "internalType": "uint256",
          "name": "tokenId",
          "type": "uint256"
        }
      ],
      "name": "getApproved",
      "outputs": [
        {
          "internalType": "address",
          "name": "",
          "type": "address"
        }
      ],
      "stateMutability": "view",
      "type": "function",
      "constant": true
    },
    {
      "inputs": [],
      "name": "getChainId",
      "outputs": [
        {
          "internalType": "uint256",
          "name": "",
          "type": "uint256"
        }
      ],
      "stateMutability": "view",
      "type": "function",
      "constant": true
    },
    {
      "inputs": [],
      "name": "getDomainSeperator",
      "outputs": [
        {
          "internalType": "bytes32",
          "name": "",
          "type": "bytes32"
        }
      ],
      "stateMutability": "view",
      "type": "function",
      "constant": true
    },
    {
      "inputs": [
        {
          "internalType": "address",
          "name": "user",
          "type": "address"
        }
      ],
      "name": "getNonce",
      "outputs": [
        {
          "internalType": "uint256",
          "name": "nonce",
          "type": "uint256"
        }
      ],
      "stateMutability": "view",
      "type": "function",
      "constant": true
    },
    {
      "inputs": [
        {
          "internalType": "address",
          "name": "owner",
          "type": "address"
        },
        {
          "internalType": "address",
          "name": "operator",
          "type": "address"
        }
      ],
      "name": "isApprovedForAll",
      "outputs": [
        {
          "internalType": "bool",
          "name": "",
          "type": "bool"
        }
      ],
      "stateMutability": "view",
      "type": "function",
      "constant": true
    },
    {
      "inputs": [
        {
          "internalType": "address",
          "name": "_to",
          "type": "address"
        }
      ],
      "name": "mintTo",
      "outputs": [],
      "stateMutability": "nonpayable",
      "type": "function"
    },
    {
      "inputs": [],
      "name": "name",
      "outputs": [
        {
          "internalType": "string",
          "name": "",
          "type": "string"
        }
      ],
      "stateMutability": "view",
      "type": "function",
      "constant": true
    },
    {
      "inputs": [],
      "name": "owner",
      "outputs": [
        {
          "internalType": "address",
          "name": "",
          "type": "address"
        }
      ],
      "stateMutability": "view",
      "type": "function",
      "constant": true
    },
    {
      "inputs": [
        {
          "internalType": "uint256",
          "name": "tokenId",
          "type": "uint256"
        }
      ],
      "name": "ownerOf",
      "outputs": [
        {
          "internalType": "address",
          "name": "",
          "type": "address"
        }
      ],
      "stateMutability": "view",
      "type": "function",
      "constant": true
    },
    {
      "inputs": [],
      "name": "renounceOwnership",
      "outputs": [],
      "stateMutability": "nonpayable",
      "type": "function"
    },
    {
      "inputs": [
        {
          "internalType": "address",
          "name": "from",
          "type": "address"
        },
        {
          "internalType": "address",
          "name": "to",
          "type": "address"
        },
        {
          "internalType": "uint256",
          "name": "tokenId",
          "type": "uint256"
        }
      ],
      "name": "safeTransferFrom",
      "outputs": [],
      "stateMutability": "nonpayable",
      "type": "function"
    },
    {
      "inputs": [
        {
          "internalType": "address",
          "name": "from",
          "type": "address"
        },
        {
          "internalType": "address",
          "name": "to",
          "type": "address"
        },
        {
          "internalType": "uint256",
          "name": "tokenId",
          "type": "uint256"
        },
        {
          "internalType": "bytes",
          "name": "_data",
          "type": "bytes"
        }
      ],
      "name": "safeTransferFrom",
      "outputs": [],
      "stateMutability": "nonpayable",
      "type": "function"
    },
    {
      "inputs": [
        {
          "internalType": "address",
          "name": "operator",
          "type": "address"
        },
        {
          "internalType": "bool",
          "name": "approved",
          "type": "bool"
        }
      ],
      "name": "setApprovalForAll",
      "outputs": [],
      "stateMutability": "nonpayable",
      "type": "function"
    },
    {
      "inputs": [
        {
          "internalType": "bytes4",
          "name": "interfaceId",
          "type": "bytes4"
        }
      ],
      "name": "supportsInterface",
      "outputs": [
        {
          "internalType": "bool",
          "name": "",
          "type": "bool"
        }
      ],
      "stateMutability": "view",
      "type": "function",
      "constant": true
    },
    {
      "inputs": [],
      "name": "symbol",
      "outputs": [
        {
          "internalType": "string",
          "name": "",
          "type": "string"
        }
      ],
      "stateMutability": "view",
      "type": "function",
      "constant": true
    },
    {
      "inputs": [
        {
          "internalType": "uint256",
          "name": "index",
          "type": "uint256"
        }
      ],
      "name": "tokenByIndex",
      "outputs": [
        {
          "internalType": "uint256",
          "name": "",
          "type": "uint256"
        }
      ],
      "stateMutability": "view",
      "type": "function",
      "constant": true
    },
    {
      "inputs": [
        {
          "internalType": "address",
          "name": "owner",
          "type": "address"
        },
        {
          "internalType": "uint256",
          "name": "index",
          "type": "uint256"
        }
      ],
      "name": "tokenOfOwnerByIndex",
      "outputs": [
        {
          "internalType": "uint256",
          "name": "",
          "type": "uint256"
        }
      ],
      "stateMutability": "view",
      "type": "function",
      "constant": true
    },
    {
      "inputs": [
        {
          "internalType": "uint256",
          "name": "_tokenId",
          "type": "uint256"
        }
      ],
      "name": "tokenURI",
      "outputs": [
        {
          "internalType": "string",
          "name": "",
          "type": "string"
        }
      ],
      "stateMutability": "pure",
      "type": "function",
      "constant": true
    },
    {
      "inputs": [],
      "name": "totalSupply",
      "outputs": [
        {
          "internalType": "uint256",
          "name": "",
          "type": "uint256"
        }
      ],
      "stateMutability": "view",
      "type": "function",
      "constant": true
    },
    {
      "inputs": [
        {
          "internalType": "address",
          "name": "from",
          "type": "address"
        },
        {
          "internalType": "address",
          "name": "to",
          "type": "address"
        },
        {
          "internalType": "uint256",
          "name": "tokenId",
          "type": "uint256"
        }
      ],
      "name": "transferFrom",
      "outputs": [],
      "stateMutability": "nonpayable",
      "type": "function"
    },
    {
      "inputs": [
        {
          "internalType": "address",
          "name": "newOwner",
          "type": "address"
        }
      ],
      "name": "transferOwnership",
      "outputs": [],
      "stateMutability": "nonpayable",
      "type": "function"
    },
    {
      "inputs": [],
      "name": "baseTokenURI",
      "outputs": [
        {
          "internalType": "string",
          "name": "",
          "type": "string"
        }
      ],
      "stateMutability": "pure",
      "type": "function",
      "constant": true
    },
    {
      "inputs": [],
      "name": "contractURI",
      "outputs": [
        {
          "internalType": "string",
          "name": "",
          "type": "string"
        }
      ],
      "stateMutability": "pure",
      "type": "function",
      "constant": true
    },
    {
      "inputs": [
        {
          "internalType": "uint256",
          "name": "tokenId",
          "type": "uint256"
        },
        {
          "internalType": "uint8",
          "name": "dataToSetIndex",
          "type": "uint8"
        },
        {
          "internalType": "bytes32",
          "name": "rgbValue",
          "type": "bytes32"
        }
      ],
      "name": "metadataSet",
      "outputs": [],
      "stateMutability": "nonpayable",
      "type": "function"
    },
    {
      "inputs": [
        {
          "internalType": "uint256",
          "name": "tokenId1",
          "type": "uint256"
        },
        {
          "internalType": "uint256",
          "name": "tokenId2",
          "type": "uint256"
        }
      ],
      "name": "merge",
      "outputs": [],
      "stateMutability": "nonpayable",
      "type": "function"
    }
  ],
  "bytecode": "0x6080604052600a805460ff191690556000600f553480156200002057600080fd5b506040516200299b3803806200299b833981016040819052620000439162000368565b6040518060400160405280600481526020016354696c6560e01b8152506040518060400160405280600481526020016354494c4560e01b815250828282816000908051906020019062000098929190620002c2565b508051620000ae906001906020840190620002c2565b5050506000620000c36200014160201b60201c565b600d80546001600160a01b0319166001600160a01b038316908117909155604051919250906000907f8be0079c531659141344cd1fd0a4f28419497f9722a3daafe3b4186f6b6457e0908290a350600e80546001600160a01b0319166001600160a01b03831617905562000137836200015d565b50505050620003d7565b600062000158620001c160201b620011971760201c565b905090565b600a5460ff1615620001a65760405162461bcd60e51b815260206004820152600e60248201526d185b1c9958591e481a5b9a5d195960921b604482015260640160405180910390fd5b620001b18162000220565b50600a805460ff19166001179055565b6000333014156200021a57600080368080601f0160208091040260200160405190810160405280939291908181526020018383808284376000920191909152505050503601516001600160a01b031691506200021d9050565b50335b90565b6040518060800160405280604f81526020016200294c604f9139805160209182012082519282019290922060408051808201825260018152603160f81b90840152805180840194909452838101919091527fc89efdaa54c0f20c7adf612882df0950f5a951637e0307cdcb4c672f298b8bc660608401523060808401524660a0808501919091528151808503909101815260c090930190528151910120600b55565b828054620002d0906200039a565b90600052602060002090601f016020900481019282620002f457600085556200033f565b82601f106200030f57805160ff19168380011785556200033f565b828001600101855582156200033f579182015b828111156200033f57825182559160200191906001019062000322565b506200034d92915062000351565b5090565b5b808211156200034d576000815560010162000352565b6000602082840312156200037b57600080fd5b81516001600160a01b03811681146200039357600080fd5b9392505050565b600181811c90821680620003af57607f821691505b60208210811415620003d157634e487b7160e01b600052602260045260246000fd5b50919050565b61256580620003e76000396000f3fe60806040526004361061015d5760003560e01c806301ffc9a71461016257806306fdde0314610197578063081812fc146101b9578063095ea7b3146101e65780630a2d4008146102085780630c53c51c146102285780630f7e59701461023b57806318160ddd1461026857806320379ee51461028757806323b872dd1461029c5780632d0335ab146102bc5780632f745c59146102f25780633408e4701461031257806342842e0e146103255780634f6ccce7146103455780636352211e1461036557806370a0823114610385578063715018a6146103a5578063755edd17146103ba5780638da5cb5b146103da57806395d89b41146103ef578063972d1ae214610404578063a22cb46514610419578063b88d4fde14610439578063c87b56dd14610459578063d1c2babb14610479578063d547cfb714610499578063e8a3d485146104ae578063e985e9c5146104c3578063f2fde38b146104e3575b600080fd5b34801561016e57600080fd5b5061018261017d366004611dcf565b610503565b60405190151581526020015b60405180910390f35b3480156101a357600080fd5b506101ac61052e565b60405161018e9190611e44565b3480156101c557600080fd5b506101d96101d4366004611e57565b6105c0565b60405161018e9190611e70565b3480156101f257600080fd5b50610206610201366004611e99565b61064d565b005b34801561021457600080fd5b50610206610223366004611edb565b610770565b6101ac610236366004611fb2565b6107d0565b34801561024757600080fd5b506101ac604051806040016040528060018152602001603160f81b81525081565b34801561027457600080fd5b506008545b60405190815260200161018e565b34801561029357600080fd5b50600b54610279565b3480156102a857600080fd5b506102066102b7366004612025565b6109b9565b3480156102c857600080fd5b506102796102d7366004612066565b6001600160a01b03166000908152600c602052604090205490565b3480156102fe57600080fd5b5061027961030d366004611e99565b6109f1565b34801561031e57600080fd5b5046610279565b34801561033157600080fd5b50610206610340366004612025565b610a87565b34801561035157600080fd5b50610279610360366004611e57565b610aa2565b34801561037157600080fd5b506101d9610380366004611e57565b610b35565b34801561039157600080fd5b506102796103a0366004612066565b610bac565b3480156103b157600080fd5b50610206610c33565b3480156103c657600080fd5b506102066103d5366004612066565b610cbc565b3480156103e657600080fd5b506101d9610d1d565b3480156103fb57600080fd5b506101ac610d2c565b34801561041057600080fd5b50610279610d3b565b34801561042557600080fd5b50610206610434366004612083565b610d51565b34801561044557600080fd5b506102066104543660046120c1565b610e4f565b34801561046557600080fd5b506101ac610474366004611e57565b610e8e565b34801561048557600080fd5b5061020661049436600461212c565b610ec8565b3480156104a557600080fd5b506101ac610f92565b3480156104ba57600080fd5b506101ac610fb2565b3480156104cf57600080fd5b506101826104de36600461214e565b610fd2565b3480156104ef57600080fd5b506102066104fe366004612066565b611097565b60006001600160e01b0319821663780e9d6360e01b14806105285750610528826111f4565b92915050565b60606000805461053d9061217c565b80601f01602080910402602001604051908101604052809291908181526020018280546105699061217c565b80156105b65780601f1061058b576101008083540402835291602001916105b6565b820191906000526020600020905b81548152906001019060200180831161059957829003601f168201915b5050505050905090565b60006105cb82611244565b6106315760405162461bcd60e51b815260206004820152602c60248201527f4552433732313a20617070726f76656420717565727920666f72206e6f6e657860448201526b34b9ba32b73a103a37b5b2b760a11b60648201526084015b60405180910390fd5b506000908152600460205260409020546001600160a01b031690565b600061065882610b35565b9050806001600160a01b0316836001600160a01b031614156106c65760405162461bcd60e51b815260206004820152602160248201527f4552433732313a20617070726f76616c20746f2063757272656e74206f776e656044820152603960f91b6064820152608401610628565b806001600160a01b03166106d8611261565b6001600160a01b031614806106f457506106f4816104de611261565b6107615760405162461bcd60e51b815260206004820152603860248201527f4552433732313a20617070726f76652063616c6c6572206973206e6f74206f776044820152771b995c881b9bdc88185c1c1c9bdd995908199bdc88185b1b60421b6064820152608401610628565b61076b838361126b565b505050565b610778611261565b6001600160a01b031661078a84610b35565b6001600160a01b0316141561076b57808260ff16847f8dc11f38f5dd33f31676778f70bf3598f9521ac596e3c165aee368ed47467ac060405160405180910390a4505050565b60408051606081810183526001600160a01b0388166000818152600c60209081529085902054845283015291810186905261080e87828787876112d9565b6108645760405162461bcd60e51b815260206004820152602160248201527f5369676e657220616e64207369676e617475726520646f206e6f74206d6174636044820152600d60fb1b6064820152608401610628565b6001600160a01b0387166000908152600c60205260409020546108889060016113c9565b6001600160a01b0388166000908152600c60205260409081902091909155517f5845892132946850460bff5a0083f71031bc5bf9aadcd40f1de79423eac9b10b906108d890899033908a906121b7565b60405180910390a1600080306001600160a01b0316888a6040516020016109009291906121ec565b60408051601f198184030181529082905261091a9161221e565b6000604051808303816000865af19150503d8060008114610957576040519150601f19603f3d011682016040523d82523d6000602084013e61095c565b606091505b5091509150816109ad5760405162461bcd60e51b815260206004820152601c60248201527b119d5b98dd1a5bdb8818d85b1b081b9bdd081cdd58d8d95cdcd99d5b60221b6044820152606401610628565b98975050505050505050565b6109ca6109c4611261565b826113dc565b6109e65760405162461bcd60e51b81526004016106289061223a565b61076b83838361149e565b60006109fc83610bac565b8210610a5e5760405162461bcd60e51b815260206004820152602b60248201527f455243373231456e756d657261626c653a206f776e657220696e646578206f7560448201526a74206f6620626f756e647360a81b6064820152608401610628565b506001600160a01b03919091166000908152600660209081526040808320938352929052205490565b61076b83838360405180602001604052806000815250610e4f565b6000610aad60085490565b8210610b105760405162461bcd60e51b815260206004820152602c60248201527f455243373231456e756d657261626c653a20676c6f62616c20696e646578206f60448201526b7574206f6620626f756e647360a01b6064820152608401610628565b60088281548110610b2357610b2361228b565b90600052602060002001549050919050565b6000818152600260205260408120546001600160a01b0316806105285760405162461bcd60e51b815260206004820152602960248201527f4552433732313a206f776e657220717565727920666f72206e6f6e657869737460448201526832b73a103a37b5b2b760b91b6064820152608401610628565b60006001600160a01b038216610c175760405162461bcd60e51b815260206004820152602a60248201527f4552433732313a2062616c616e636520717565727920666f7220746865207a65604482015269726f206164647265737360b01b6064820152608401610628565b506001600160a01b031660009081526003602052604090205490565b610c3b611261565b6001600160a01b0316610c4c610d1d565b6001600160a01b031614610c725760405162461bcd60e51b8152600401610628906122a1565b600d546040516000916001600160a01b0316907f8be0079c531659141344cd1fd0a4f28419497f9722a3daafe3b4186f6b6457e0908390a3600d80546001600160a01b0319169055565b610cc4611261565b6001600160a01b0316610cd5610d1d565b6001600160a01b031614610cfb5760405162461bcd60e51b8152600401610628906122a1565b6000610d05610d3b565b9050610d118282611637565b610d19611763565b5050565b600d546001600160a01b031690565b60606001805461053d9061217c565b600f54600090610d4c9060016113c9565b905090565b610d59611261565b6001600160a01b0316826001600160a01b03161415610db65760405162461bcd60e51b815260206004820152601960248201527822a9219b99189d1030b8383937bb32903a379031b0b63632b960391b6044820152606401610628565b8060056000610dc3611261565b6001600160a01b03908116825260208083019390935260409182016000908120918716808252919093529120805460ff191692151592909217909155610e07611261565b6001600160a01b03167f17307eab39ab6107e8899845ad3d59bd9653f200f220920489ca2b5937696c3183604051610e43911515815260200190565b60405180910390a35050565b610e60610e5a611261565b836113dc565b610e7c5760405162461bcd60e51b81526004016106289061223a565b610e888484848461177a565b50505050565b6060610e98610f92565b610ea1836117ad565b604051602001610eb29291906122d6565b6040516020818303038152906040529050919050565b6000610ed2611261565b9050818314158015610efd5750806001600160a01b0316610ef284610b35565b6001600160a01b0316145b8015610f225750806001600160a01b0316610f1783610b35565b6001600160a01b0316145b610f2b57600080fd5b6000610f35610d3b565b9050610f4184846118aa565b610f4a84611927565b610f5383611927565b610f5d8282611637565b8083857faf49bfaf2e89d3c4c27597e51083974866f80562836b8ceec82e54a67948709f60405160405180910390a450505050565b60606040518060600160405280602481526020016124c660249139905090565b606060405180606001604052806026815260200161250a60269139905090565b600e5460405163c455279160e01b81526000916001600160a01b039081169190841690829063c45527919061100b908890600401611e70565b602060405180830381865afa158015611028573d6000803e3d6000fd5b505050506040513d601f19601f8201168201806040525081019061104c9190612305565b6001600160a01b03161415611065576001915050610528565b6001600160a01b0380851660009081526005602090815260408083209387168352929052205460ff165b949350505050565b61109f611261565b6001600160a01b03166110b0610d1d565b6001600160a01b0316146110d65760405162461bcd60e51b8152600401610628906122a1565b6001600160a01b03811661113b5760405162461bcd60e51b815260206004820152602660248201527f4f776e61626c653a206e6577206f776e657220697320746865207a65726f206160448201526564647265737360d01b6064820152608401610628565b600d546040516001600160a01b038084169216907f8be0079c531659141344cd1fd0a4f28419497f9722a3daafe3b4186f6b6457e090600090a3600d80546001600160a01b0319166001600160a01b0392909216919091179055565b6000333014156111ee57600080368080601f0160208091040260200160405190810160405280939291908181526020018383808284376000920191909152505050503601516001600160a01b031691506111f19050565b50335b90565b60006001600160e01b031982166380ac58cd60e01b148061122557506001600160e01b03198216635b5e139f60e01b145b8061052857506301ffc9a760e01b6001600160e01b0319831614610528565b6000908152600260205260409020546001600160a01b0316151590565b6000610d4c611197565b600081815260046020526040902080546001600160a01b0319166001600160a01b03841690811790915581906112a082610b35565b6001600160a01b03167f8c5be1e5ebec7d5bd14f71427d1e84f3dd0314c0f7b2291e5b200ac8c7c3b92560405160405180910390a45050565b60006001600160a01b03861661133f5760405162461bcd60e51b815260206004820152602560248201527f4e61746976654d6574615472616e73616374696f6e3a20494e56414c49445f5360448201526424a3a722a960d91b6064820152608401610628565b600161135261134d876119bc565b611a39565b6040805160008152602081018083529290925260ff851690820152606081018690526080810185905260a0016020604051602081039080840390855afa1580156113a0573d6000803e3d6000fd5b505050602060405103516001600160a01b0316866001600160a01b031614905095945050505050565b60006113d58284612338565b9392505050565b60006113e782611244565b6114485760405162461bcd60e51b815260206004820152602c60248201527f4552433732313a206f70657261746f7220717565727920666f72206e6f6e657860448201526b34b9ba32b73a103a37b5b2b760a11b6064820152608401610628565b600061145383610b35565b9050806001600160a01b0316846001600160a01b0316148061148e5750836001600160a01b0316611483846105c0565b6001600160a01b0316145b8061108f575061108f8185610fd2565b826001600160a01b03166114b182610b35565b6001600160a01b0316146115195760405162461bcd60e51b815260206004820152602960248201527f4552433732313a207472616e73666572206f6620746f6b656e2074686174206960448201526839903737ba1037bbb760b91b6064820152608401610628565b6001600160a01b03821661157b5760405162461bcd60e51b8152602060048201526024808201527f4552433732313a207472616e7366657220746f20746865207a65726f206164646044820152637265737360e01b6064820152608401610628565b611586838383611a69565b61159160008261126b565b6001600160a01b03831660009081526003602052604081208054600192906115ba908490612350565b90915550506001600160a01b03821660009081526003602052604081208054600192906115e8908490612338565b909155505060008181526002602052604080822080546001600160a01b0319166001600160a01b0386811691821790925591518493918716916000805160206124ea83398151915291a4505050565b6001600160a01b03821661168d5760405162461bcd60e51b815260206004820181905260248201527f4552433732313a206d696e7420746f20746865207a65726f20616464726573736044820152606401610628565b61169681611244565b156116e25760405162461bcd60e51b815260206004820152601c60248201527b115490cdcc8c4e881d1bdad95b88185b1c9958591e481b5a5b9d195960221b6044820152606401610628565b6116ee60008383611a69565b6001600160a01b0382166000908152600360205260408120805460019290611717908490612338565b909155505060008181526002602052604080822080546001600160a01b0319166001600160a01b03861690811790915590518392906000805160206124ea833981519152908290a45050565b600f805490600061177383612367565b9190505550565b61178584848461149e565b61179184848484611b21565b610e885760405162461bcd60e51b815260040161062890612382565b6060816117d15750506040805180820190915260018152600360fc1b602082015290565b8160005b81156117fb57806117e581612367565b91506117f49050600a836123ea565b91506117d5565b6000816001600160401b0381111561181557611815611f10565b6040519080825280601f01601f19166020018201604052801561183f576020820181803683370190505b5090505b841561108f57611854600183612350565b9150611861600a866123fe565b61186c906030612338565b60f81b8183815181106118815761188161228b565b60200101906001600160f81b031916908160001a9053506118a3600a866123ea565b9450611843565b60006118b4611261565b90508183141580156118df5750806001600160a01b03166118d484610b35565b6001600160a01b0316145b80156119045750806001600160a01b03166118f983610b35565b6001600160a01b0316145b61190d57600080fd5b600f805490600061191d83612367565b9190505550505050565b600061193282610b35565b905061194081600084611a69565b61194b60008361126b565b6001600160a01b0381166000908152600360205260408120805460019290611974908490612350565b909155505060008281526002602052604080822080546001600160a01b0319169055518391906001600160a01b038416906000805160206124ea833981519152908390a45050565b60006040518060800160405280604381526020016124836043913980516020918201208351848301516040808701518051908601209051611a1c950193845260208401929092526001600160a01b03166040830152606082015260800190565b604051602081830303815290604052805190602001209050919050565b6000611a44600b5490565b60405161190160f01b6020820152602281019190915260428101839052606201611a1c565b6001600160a01b038316611ac457611abf81600880546000838152600960205260408120829055600182018355919091527ff3f7a9fe364faab93b216da50a3214154f22a0a2b415b23a84c8169e8b636ee30155565b611ae7565b816001600160a01b0316836001600160a01b031614611ae757611ae78382611c26565b6001600160a01b038216611afe5761076b81611cc3565b826001600160a01b0316826001600160a01b03161461076b5761076b8282611d72565b60006001600160a01b0384163b15611c1b57836001600160a01b031663150b7a02611b4a611261565b8786866040518563ffffffff1660e01b8152600401611b6c9493929190612412565b6020604051808303816000875af1925050508015611ba7575060408051601f3d908101601f19168201909252611ba49181019061244f565b60015b611c01573d808015611bd5576040519150601f19603f3d011682016040523d82523d6000602084013e611bda565b606091505b508051611bf95760405162461bcd60e51b815260040161062890612382565b805181602001fd5b6001600160e01b031916630a85bd0160e11b14905061108f565b506001949350505050565b60006001611c3384610bac565b611c3d9190612350565b600083815260076020526040902054909150808214611c90576001600160a01b03841660009081526006602090815260408083208584528252808320548484528184208190558352600790915290208190555b5060009182526007602090815260408084208490556001600160a01b039094168352600681528383209183525290812055565b600854600090611cd590600190612350565b60008381526009602052604081205460088054939450909284908110611cfd57611cfd61228b565b906000526020600020015490508060088381548110611d1e57611d1e61228b565b6000918252602080832090910192909255828152600990915260408082208490558582528120556008805480611d5657611d5661246c565b6001900381819060005260206000200160009055905550505050565b6000611d7d83610bac565b6001600160a01b039093166000908152600660209081526040808320868452825280832085905593825260079052919091209190915550565b6001600160e01b031981168114611dcc57600080fd5b50565b600060208284031215611de157600080fd5b81356113d581611db6565b60005b83811015611e07578181015183820152602001611def565b83811115610e885750506000910152565b60008151808452611e30816020860160208601611dec565b601f01601f19169290920160200192915050565b6020815260006113d56020830184611e18565b600060208284031215611e6957600080fd5b5035919050565b6001600160a01b0391909116815260200190565b6001600160a01b0381168114611dcc57600080fd5b60008060408385031215611eac57600080fd5b8235611eb781611e84565b946020939093013593505050565b803560ff81168114611ed657600080fd5b919050565b600080600060608486031215611ef057600080fd5b83359250611f0060208501611ec5565b9150604084013590509250925092565b634e487b7160e01b600052604160045260246000fd5b600082601f830112611f3757600080fd5b81356001600160401b0380821115611f5157611f51611f10565b604051601f8301601f19908116603f01168101908282118183101715611f7957611f79611f10565b81604052838152866020858801011115611f9257600080fd5b836020870160208301376000602085830101528094505050505092915050565b600080600080600060a08688031215611fca57600080fd5b8535611fd581611e84565b945060208601356001600160401b03811115611ff057600080fd5b611ffc88828901611f26565b945050604086013592506060860135915061201960808701611ec5565b90509295509295909350565b60008060006060848603121561203a57600080fd5b833561204581611e84565b9250602084013561205581611e84565b929592945050506040919091013590565b60006020828403121561207857600080fd5b81356113d581611e84565b6000806040838503121561209657600080fd5b82356120a181611e84565b9150602083013580151581146120b657600080fd5b809150509250929050565b600080600080608085870312156120d757600080fd5b84356120e281611e84565b935060208501356120f281611e84565b92506040850135915060608501356001600160401b0381111561211457600080fd5b61212087828801611f26565b91505092959194509250565b6000806040838503121561213f57600080fd5b50508035926020909101359150565b6000806040838503121561216157600080fd5b823561216c81611e84565b915060208301356120b681611e84565b600181811c9082168061219057607f821691505b602082108114156121b157634e487b7160e01b600052602260045260246000fd5b50919050565b6001600160a01b038481168252831660208201526060604082018190526000906121e390830184611e18565b95945050505050565b600083516121fe818460208801611dec565b60609390931b6001600160601b0319169190920190815260140192915050565b60008251612230818460208701611dec565b9190910192915050565b60208082526031908201527f4552433732313a207472616e736665722063616c6c6572206973206e6f74206f6040820152701ddb995c881b9bdc88185c1c1c9bdd9959607a1b606082015260800190565b634e487b7160e01b600052603260045260246000fd5b6020808252818101527f4f776e61626c653a2063616c6c6572206973206e6f7420746865206f776e6572604082015260600190565b600083516122e8818460208801611dec565b8351908301906122fc818360208801611dec565b01949350505050565b60006020828403121561231757600080fd5b81516113d581611e84565b634e487b7160e01b600052601160045260246000fd5b6000821982111561234b5761234b612322565b500190565b60008282101561236257612362612322565b500390565b600060001982141561237b5761237b612322565b5060010190565b60208082526032908201527f4552433732313a207472616e7366657220746f206e6f6e20455243373231526560408201527131b2b4bb32b91034b6b83632b6b2b73a32b960711b606082015260800190565b634e487b7160e01b600052601260045260246000fd5b6000826123f9576123f96123d4565b500490565b60008261240d5761240d6123d4565b500690565b6001600160a01b038581168252841660208201526040810183905260806060820181905260009061244590830184611e18565b9695505050505050565b60006020828403121561246157600080fd5b81516113d581611db6565b634e487b7160e01b600052603160045260246000fdfe4d6574615472616e73616374696f6e2875696e74323536206e6f6e63652c616464726573732066726f6d2c62797465732066756e6374696f6e5369676e617475726529687474703a2f2f33342e3135302e3233302e3230392f6170692f74696c65732f6765742fddf252ad1be2c89b69c2b068fc378daa952ba7f163c4a11628f55a4df523b3ef687474703a2f2f33342e3135302e3233302e3230392f6170692f636f6e74726163742f676574a26469706673582212200f58fdddffccb4b8bb616ce9fb87c53d72d72600411ae61d53acd8f76668859a64736f6c634300080b0033454950373132446f6d61696e28737472696e67206e616d652c737472696e672076657273696f6e2c6164647265737320766572696679696e67436f6e74726163742c627974657333322073616c7429",
  "immutableReferences": {},
  "source": "// SPDX-License-Identifier: MIT\n\npragma solidity ^0.8.0;\n\nimport \"./ERC721Tradable.sol\";\n\n/**\n * @title TileNFT\n * TileNFT - a contract for my non-fungible tileNFTs.\n */\ncontract Tile is ERC721Tradable {\n\n    event MergeMint(\n        uint256 indexed burnedTokenId1,\n        uint256 indexed burnedTokenId2,\n        uint256 indexed newTokenId\n    );\n\n    event MetadataSet(\n        uint256 indexed tokenId,\n        uint8 indexed dataToSetIndex,\n        bytes32 indexed rgbValue\n    );\n\n    constructor(address _proxyRegistryAddress)\n        ERC721Tradable(\"Tile\", \"TILE\", _proxyRegistryAddress)\n    {}\n\n    function baseTokenURI() override public pure returns (string memory) {\n        return \"http://34.150.230.209/api/tiles/get/\";\n    }\n\n    function contractURI() public pure returns (string memory) {\n        return \"http://34.150.230.209/api/contract/get\";\n    }\n\n    function metadataSet(uint256 tokenId,  uint8 dataToSetIndex, bytes32 rgbValue) public {\n        if (ERC721.ownerOf(tokenId) == _msgSender()) {\n            emit MetadataSet(tokenId, dataToSetIndex, rgbValue);\n        }\n    }\n\n    function merge(uint256 tokenId1,  uint256 tokenId2) public {\n        address sender = _msgSender();\n        require(tokenId1 != tokenId2 && ERC721.ownerOf(tokenId1) == sender && ERC721.ownerOf(tokenId2) == sender);\n        uint256 newTokenId = _getNextTokenId();\n        _incrementTokenIdForMerge(tokenId1, tokenId2);\n        _burn(tokenId1);\n        _burn(tokenId2);\n        _mint(sender, newTokenId);\n        emit MergeMint(tokenId1, tokenId2, newTokenId);\n    }\n\n}\n",
  "sourcePath": "/Users/tylerfitzgerald/projects/tile-nft/contracts/Tile.sol",
  "compiler": {
    "name": "solc",
    "version": "0.8.11+commit.d7f03943.Emscripten.clang"
  },
  "schemaVersion": "3.3.4",
  "updatedAt": "2021-12-28T15:28:54.044Z",
  "networkType": "ethereum",
  "devdoc": {
    "kind": "dev",
    "methods": {
      "_getNextTokenId()": {
        "details": "calculates the next token ID based on value of _currentTokenId",
        "returns": {
          "_0": "uint256 for the next token ID"
        }
      },
      "approve(address,uint256)": {
        "details": "See {IERC721-approve}."
      },
      "balanceOf(address)": {
        "details": "See {IERC721-balanceOf}."
      },
      "getApproved(uint256)": {
        "details": "See {IERC721-getApproved}."
      },
      "mintTo(address)": {
        "details": "Mints a token to an address with a tokenURI.",
        "params": {
          "_to": "address of the future owner of the token"
        }
      },
      "name()": {
        "details": "See {IERC721Metadata-name}."
      },
      "owner()": {
        "details": "Returns the address of the current owner."
      },
      "ownerOf(uint256)": {
        "details": "See {IERC721-ownerOf}."
      },
      "renounceOwnership()": {
        "details": "Leaves the contract without owner. It will not be possible to call `onlyOwner` functions anymore. Can only be called by the current owner. NOTE: Renouncing ownership will leave the contract without an owner, thereby removing any functionality that is only available to the owner."
      },
      "safeTransferFrom(address,address,uint256)": {
        "details": "See {IERC721-safeTransferFrom}."
      },
      "safeTransferFrom(address,address,uint256,bytes)": {
        "details": "See {IERC721-safeTransferFrom}."
      },
      "setApprovalForAll(address,bool)": {
        "details": "See {IERC721-setApprovalForAll}."
      },
      "supportsInterface(bytes4)": {
        "details": "See {IERC165-supportsInterface}."
      },
      "symbol()": {
        "details": "See {IERC721Metadata-symbol}."
      },
      "tokenByIndex(uint256)": {
        "details": "See {IERC721Enumerable-tokenByIndex}."
      },
      "tokenOfOwnerByIndex(address,uint256)": {
        "details": "See {IERC721Enumerable-tokenOfOwnerByIndex}."
      },
      "totalSupply()": {
        "details": "See {IERC721Enumerable-totalSupply}."
      },
      "transferFrom(address,address,uint256)": {
        "details": "See {IERC721-transferFrom}."
      },
      "transferOwnership(address)": {
        "details": "Transfers ownership of the contract to a new account (`newOwner`). Can only be called by the current owner."
      }
    },
    "title": "TileNFT TileNFT - a contract for my non-fungible tileNFTs.",
    "version": 1
  },
  "userdoc": {
    "kind": "user",
    "methods": {
      "isApprovedForAll(address,address)": {
        "notice": "Override isApprovedForAll to whitelist user's OpenSea proxy accounts to enable gas-less listings."
      }
    },
    "version": 1
  }
}