{
  "contractName": "TileFactory",
  "abi": [
    {
      "inputs": [
        {
          "internalType": "address",
          "name": "_proxyRegistryAddress",
          "type": "address"
        },
        {
          "internalType": "address",
          "name": "_nftAddress",
          "type": "address"
        }
      ],
      "stateMutability": "nonpayable",
      "type": "constructor"
    },
    {
      "anonymous": false,
      "inputs": [
        {
          "indexed": true,
          "internalType": "uint256",
          "name": "tokenId",
          "type": "uint256"
        }
      ],
      "name": "Mint",
      "type": "event"
    },
    {
      "anonymous": false,
      "inputs": [
        {
          "indexed": true,
          "internalType": "address",
          "name": "previousOwner",
          "type": "address"
        },
        {
          "indexed": true,
          "internalType": "address",
          "name": "newOwner",
          "type": "address"
        }
      ],
      "name": "OwnershipTransferred",
      "type": "event"
    },
    {
      "anonymous": false,
      "inputs": [
        {
          "indexed": true,
          "internalType": "address",
          "name": "from",
          "type": "address"
        },
        {
          "indexed": true,
          "internalType": "address",
          "name": "to",
          "type": "address"
        },
        {
          "indexed": true,
          "internalType": "uint256",
          "name": "tokenId",
          "type": "uint256"
        }
      ],
      "name": "Transfer",
      "type": "event"
    },
    {
      "inputs": [],
      "name": "BASE_URI",
      "outputs": [
        {
          "internalType": "string",
          "name": "",
          "type": "string"
        }
      ],
      "stateMutability": "view",
      "type": "function",
      "constant": true
    },
    {
      "inputs": [],
      "name": "nftAddress",
      "outputs": [
        {
          "internalType": "address",
          "name": "",
          "type": "address"
        }
      ],
      "stateMutability": "view",
      "type": "function",
      "constant": true
    },
    {
      "inputs": [],
      "name": "owner",
      "outputs": [
        {
          "internalType": "address",
          "name": "",
          "type": "address"
        }
      ],
      "stateMutability": "view",
      "type": "function",
      "constant": true
    },
    {
      "inputs": [],
      "name": "proxyRegistryAddress",
      "outputs": [
        {
          "internalType": "address",
          "name": "",
          "type": "address"
        }
      ],
      "stateMutability": "view",
      "type": "function",
      "constant": true
    },
    {
      "inputs": [],
      "name": "renounceOwnership",
      "outputs": [],
      "stateMutability": "nonpayable",
      "type": "function"
    },
    {
      "inputs": [],
      "name": "name",
      "outputs": [
        {
          "internalType": "string",
          "name": "",
          "type": "string"
        }
      ],
      "stateMutability": "pure",
      "type": "function",
      "constant": true
    },
    {
      "inputs": [],
      "name": "symbol",
      "outputs": [
        {
          "internalType": "string",
          "name": "",
          "type": "string"
        }
      ],
      "stateMutability": "pure",
      "type": "function",
      "constant": true
    },
    {
      "inputs": [],
      "name": "supportsFactoryInterface",
      "outputs": [
        {
          "internalType": "bool",
          "name": "",
          "type": "bool"
        }
      ],
      "stateMutability": "pure",
      "type": "function",
      "constant": true
    },
    {
      "inputs": [],
      "name": "numOptions",
      "outputs": [
        {
          "internalType": "uint256",
          "name": "",
          "type": "uint256"
        }
      ],
      "stateMutability": "view",
      "type": "function",
      "constant": true
    },
    {
      "inputs": [
        {
          "internalType": "address",
          "name": "newOwner",
          "type": "address"
        }
      ],
      "name": "transferOwnership",
      "outputs": [],
      "stateMutability": "nonpayable",
      "type": "function"
    },
    {
      "inputs": [
        {
          "internalType": "uint256",
          "name": "_optionId",
          "type": "uint256"
        },
        {
          "internalType": "address",
          "name": "_toAddress",
          "type": "address"
        }
      ],
      "name": "mint",
      "outputs": [],
      "stateMutability": "nonpayable",
      "type": "function"
    },
    {
      "inputs": [
        {
          "internalType": "uint256",
          "name": "_optionId",
          "type": "uint256"
        }
      ],
      "name": "canMint",
      "outputs": [
        {
          "internalType": "bool",
          "name": "",
          "type": "bool"
        }
      ],
      "stateMutability": "view",
      "type": "function",
      "constant": true
    },
    {
      "inputs": [
        {
          "internalType": "uint256",
          "name": "_optionId",
          "type": "uint256"
        }
      ],
      "name": "tokenURI",
      "outputs": [
        {
          "internalType": "string",
          "name": "",
          "type": "string"
        }
      ],
      "stateMutability": "view",
      "type": "function",
      "constant": true
    },
    {
      "inputs": [
        {
          "internalType": "address",
          "name": "_from",
          "type": "address"
        },
        {
          "internalType": "address",
          "name": "_to",
          "type": "address"
        },
        {
          "internalType": "uint256",
          "name": "_tokenId",
          "type": "uint256"
        }
      ],
      "name": "transferFrom",
      "outputs": [],
      "stateMutability": "nonpayable",
      "type": "function"
    },
    {
      "inputs": [
        {
          "internalType": "address",
          "name": "_owner",
          "type": "address"
        },
        {
          "internalType": "address",
          "name": "_operator",
          "type": "address"
        }
      ],
      "name": "isApprovedForAll",
      "outputs": [
        {
          "internalType": "bool",
          "name": "",
          "type": "bool"
        }
      ],
      "stateMutability": "view",
      "type": "function",
      "constant": true
    },
    {
      "inputs": [
        {
          "internalType": "uint256",
          "name": "_tokenId",
          "type": "uint256"
        }
      ],
      "name": "ownerOf",
      "outputs": [
        {
          "internalType": "address",
          "name": "_owner",
          "type": "address"
        }
      ],
      "stateMutability": "view",
      "type": "function",
      "constant": true
    }
  ],
  "bytecode": "0x60e06040526024608081815290620010a260a039805162000029916003916020909101906200016c565b50606460045560016005553480156200004157600080fd5b50604051620010c6380380620010c683398101604081905262000064916200022f565b600080546001600160a01b031916339081178255604051909182917f8be0079c531659141344cd1fd0a4f28419497f9722a3daafe3b4186f6b6457e0908290a350600180546001600160a01b038481166001600160a01b03199283161790925560028054848416921691909117905560008054620000e39216620000eb565b5050620002ce565b60005b620000f86200015b565b811015620001565780826001600160a01b0316846001600160a01b03167fddf252ad1be2c89b69c2b068fc378daa952ba7f163c4a11628f55a4df523b3ef60405160405180910390a4806200014d8162000267565b915050620000ee565b505050565b60006200016760055490565b905090565b8280546200017a9062000291565b90600052602060002090601f0160209004810192826200019e5760008555620001e9565b82601f10620001b957805160ff1916838001178555620001e9565b82800160010185558215620001e9579182015b82811115620001e9578251825591602001919060010190620001cc565b50620001f7929150620001fb565b5090565b5b80821115620001f75760008155600101620001fc565b80516001600160a01b03811681146200022a57600080fd5b919050565b600080604083850312156200024357600080fd5b6200024e8362000212565b91506200025e6020840162000212565b90509250929050565b60006000198214156200028a57634e487b7160e01b600052601160045260246000fd5b5060010190565b600181811c90821680620002a657607f821691505b60208210811415620002c857634e487b7160e01b600052602260045260246000fd5b50919050565b610dc480620002de6000396000f3fe608060405234801561001057600080fd5b50600436106100d05760003560e01c806306fdde03146100d557806323b872dd146101145780634b97aed9146101295780635bf8633a1461013f5780635dd871a31461015f5780636352211e14610182578063715018a6146101955780638da5cb5b1461019d57806394bf804d146101a557806395d89b41146101b8578063c311c523146101df578063c87b56dd146101e6578063cd7c0326146101f9578063dbddb26a1461020c578063e985e9c514610214578063f2fde38b14610227575b600080fd5b60408051808201909152601181527054696c654e6674204974656d2053616c6560781b60208201525b60405161010b9190610a0a565b60405180910390f35b610127610122366004610a55565b61023a565b005b610131610249565b60405190815260200161010b565b600254610152906001600160a01b031681565b60405161010b9190610a96565b61017261016d366004610aaa565b610259565b604051901515815260200161010b565b610152610190366004610aaa565b6102fe565b61012761030e565b610152610390565b6101276101b3366004610ac3565b61039f565b60408051808201909152600b81526a54696c654e667453616c6560a81b60208201526100fe565b6001610172565b6100fe6101f4366004610aaa565b61055f565b600154610152906001600160a01b031681565b6100fe610593565b610172610222366004610af3565b610621565b610127610235366004610b21565b61072e565b610244818361039f565b505050565b600061025460055490565b905090565b600061026460055490565b821061027257506000919050565b6002546001600160a01b0316600161028960045490565b6102939190610b5b565b816001600160a01b03166318160ddd6040518163ffffffff1660e01b8152600401602060405180830381865afa1580156102d1573d6000803e3d6000fd5b505050506040513d601f19601f820116820180604052508101906102f59190610b72565b11159392505050565b6000610308610390565b92915050565b33610317610390565b6001600160a01b0316146103465760405162461bcd60e51b815260040161033d90610b8b565b60405180910390fd5b600080546040516001600160a01b03909116907f8be0079c531659141344cd1fd0a4f28419497f9722a3daafe3b4186f6b6457e0908390a3600080546001600160a01b0319169055565b6000546001600160a01b031690565b6001546001600160a01b0316338163c45527916103ba610390565b6040518263ffffffff1660e01b81526004016103d69190610a96565b602060405180830381865afa1580156103f3573d6000803e3d6000fd5b505050506040513d601f19601f820116820180604052508101906104179190610bc0565b6001600160a01b0316148061043b575033610430610390565b6001600160a01b0316145b61044757610447610bdd565b61045083610259565b61045957600080fd5b60025460408051634b968d7160e11b815290516001600160a01b0390921691600091839163972d1ae2916004808201926020929091908290030181865afa1580156104a8573d6000803e3d6000fd5b505050506040513d601f19601f820116820180604052508101906104cc9190610b72565b60405163755edd1760e01b81529091506001600160a01b0383169063755edd17906104fb908790600401610a96565b600060405180830381600087803b15801561051557600080fd5b505af1158015610529573d6000803e3d6000fd5b50506040518392507f07883703ed0e86588a40d76551c92f8a4b329e3bf19765e0e6749473c1a846659150600090a25050505050565b6060600361056c83610780565b60405160200161057d929190610c4a565b6040516020818303038152906040529050919050565b600380546105a090610bf3565b80601f01602080910402602001604051908101604052809291908181526020018280546105cc90610bf3565b80156106195780601f106105ee57610100808354040283529160200191610619565b820191906000526020600020905b8154815290600101906020018083116105fc57829003601f168201915b505050505081565b6000826001600160a01b0316610635610390565b6001600160a01b031614801561065c5750816001600160a01b0316836001600160a01b0316145b1561066957506001610308565b6001546001600160a01b03908116908416610682610390565b6001600160a01b03161480156107155750826001600160a01b0316816001600160a01b031663c4552791866040518263ffffffff1660e01b81526004016106c99190610a96565b602060405180830381865afa1580156106e6573d6000803e3d6000fd5b505050506040513d601f19601f8201168201806040525081019061070a9190610bc0565b6001600160a01b0316145b15610724576001915050610308565b5060009392505050565b33610737610390565b6001600160a01b03161461075d5760405162461bcd60e51b815260040161033d90610b8b565b6000610767610390565b905061077282610886565b61077c8183610975565b5050565b6060816107a45750506040805180820190915260018152600360fc1b602082015290565b8160005b81156107ce57806107b881610cf1565b91506107c79050600a83610d22565b91506107a8565b60008167ffffffffffffffff8111156107e9576107e9610d36565b6040519080825280601f01601f191660200182016040528015610813576020820181803683370190505b5090505b841561087e57610828600183610b5b565b9150610835600a86610d4c565b610840906030610d60565b60f81b81838151811061085557610855610d78565b60200101906001600160f81b031916908160001a905350610877600a86610d22565b9450610817565b949350505050565b3361088f610390565b6001600160a01b0316146108b55760405162461bcd60e51b815260040161033d90610b8b565b6001600160a01b03811661091a5760405162461bcd60e51b815260206004820152602660248201527f4f776e61626c653a206e6577206f776e657220697320746865207a65726f206160448201526564647265737360d01b606482015260840161033d565b600080546040516001600160a01b03808516939216917f8be0079c531659141344cd1fd0a4f28419497f9722a3daafe3b4186f6b6457e091a3600080546001600160a01b0319166001600160a01b0392909216919091179055565b60005b610980610249565b8110156102445780826001600160a01b0316846001600160a01b03167fddf252ad1be2c89b69c2b068fc378daa952ba7f163c4a11628f55a4df523b3ef60405160405180910390a4806109d281610cf1565b915050610978565b60005b838110156109f55781810151838201526020016109dd565b83811115610a04576000848401525b50505050565b6020815260008251806020840152610a298160408501602087016109da565b601f01601f19169190910160400192915050565b6001600160a01b0381168114610a5257600080fd5b50565b600080600060608486031215610a6a57600080fd5b8335610a7581610a3d565b92506020840135610a8581610a3d565b929592945050506040919091013590565b6001600160a01b0391909116815260200190565b600060208284031215610abc57600080fd5b5035919050565b60008060408385031215610ad657600080fd5b823591506020830135610ae881610a3d565b809150509250929050565b60008060408385031215610b0657600080fd5b8235610b1181610a3d565b91506020830135610ae881610a3d565b600060208284031215610b3357600080fd5b8135610b3e81610a3d565b9392505050565b634e487b7160e01b600052601160045260246000fd5b600082821015610b6d57610b6d610b45565b500390565b600060208284031215610b8457600080fd5b5051919050565b6020808252818101527f4f776e61626c653a2063616c6c6572206973206e6f7420746865206f776e6572604082015260600190565b600060208284031215610bd257600080fd5b8151610b3e81610a3d565b634e487b7160e01b600052600160045260246000fd5b600181811c90821680610c0757607f821691505b60208210811415610c2857634e487b7160e01b600052602260045260246000fd5b50919050565b60008151610c408185602086016109da565b9290920192915050565b600080845481600182811c915080831680610c6657607f831692505b6020808410821415610c8657634e487b7160e01b86526022600452602486fd5b818015610c9a5760018114610cab57610cd8565b60ff19861689528489019650610cd8565b60008b81526020902060005b86811015610cd05781548b820152908501908301610cb7565b505084890196505b505050505050610ce88185610c2e565b95945050505050565b6000600019821415610d0557610d05610b45565b5060010190565b634e487b7160e01b600052601260045260246000fd5b600082610d3157610d31610d0c565b500490565b634e487b7160e01b600052604160045260246000fd5b600082610d5b57610d5b610d0c565b500690565b60008219821115610d7357610d73610b45565b500190565b634e487b7160e01b600052603260045260246000fdfea264697066735822122055802c7f86543cb2739f4f749e730f496019d1f3427b4e66804c5e0bf081432464736f6c634300080b0033687474703a2f2f33342e3135302e3233302e3230392f6170692f73616c65732f6765742f",
  "immutableReferences": {},
  "source": "// SPDX-License-Identifier: MIT\n\npragma solidity ^0.8.0;\n\nimport \"openzeppelin-solidity/contracts/access/Ownable.sol\";\nimport \"openzeppelin-solidity/contracts/utils/Strings.sol\";\nimport \"./IFactoryERC721.sol\";\nimport \"./Tile.sol\";\n\ncontract TileFactory is FactoryERC721, Ownable {\n    using Strings for string;\n\n    /*\n    * EVENTS\n    */\n    event Transfer(\n        address indexed from,\n        address indexed to,\n        uint256 indexed tokenId\n    );\n\n    event Mint(\n        uint256 indexed tokenId\n    );\n\n    /*\n    * STORAGE\n    */\n    address public proxyRegistryAddress;\n    address public nftAddress;\n\n    /*\n    * CONSTANTS\n    */\n    string public BASE_URI = \"http://34.150.230.209/api/sales/get/\";\n    uint256 MAX_TOKEN_SUPPLY = 100;\n    uint256 NUM_SALE_OPTIONS = 1;\n\n    constructor(address _proxyRegistryAddress, address _nftAddress) {\n        proxyRegistryAddress = _proxyRegistryAddress;\n        nftAddress = _nftAddress;\n        fireTransferEvents(address(0), owner());\n    }\n\n    function name() override external pure returns (string memory) {\n        return \"TileNft Item Sale\";\n    }\n\n    function symbol() override external pure returns (string memory) {\n        return \"TileNftSale\";\n    }\n\n    function supportsFactoryInterface() override public pure returns (bool) {\n        return true;\n    }\n\n    function numOptions() override public view returns (uint256) {\n        return getSaleOptionsTotal();\n    }\n\n    function transferOwnership(address newOwner) override public onlyOwner {\n        address _prevOwner = owner();\n        super.transferOwnership(newOwner);\n        fireTransferEvents(_prevOwner, newOwner);\n    }\n\n    function fireTransferEvents(address _from, address _to) private {\n        for (uint256 i = 0; i < numOptions(); i++) {\n            emit Transfer(_from, _to, i);\n        }\n    }\n\n    function mint(uint256 _optionId, address _toAddress) override public {\n        // Must be sent from the owner proxy or owner.\n        ProxyRegistry proxyRegistry = ProxyRegistry(proxyRegistryAddress);\n        assert(\n            address(proxyRegistry.proxies(owner())) == _msgSender() ||\n                owner() == _msgSender()\n        );\n        require(canMint(_optionId));\n        Tile tileContract = Tile(nftAddress);\n        uint256 nextTokenId = tileContract._getNextTokenId();\n        tileContract.mintTo(_toAddress);\n        emit Mint(nextTokenId);\n    }\n\n    function canMint(uint256 _optionId) override public view returns (bool) {\n        if (_optionId >= getSaleOptionsTotal()) {\n            return false;\n        }\n        Tile tileContract = Tile(nftAddress);\n        return tileContract.totalSupply() <= (getTokenMaxSupply() - 1);\n    }\n\n    function tokenURI(uint256 _optionId) override external view returns (string memory) {\n        return string(abi.encodePacked(BASE_URI, Strings.toString(_optionId)));\n    }\n\n    /**\n     * Hack to get things to work automatically on OpenSea.\n     * Use transferFrom so the frontend doesn't have to worry about different method names.\n     */\n    function transferFrom(\n        address _from,\n        address _to,\n        uint256 _tokenId\n    ) public {\n        mint(_tokenId, _to);\n    }\n\n    /**\n     * Hack to get things to work automatically on OpenSea.\n     * Use isApprovedForAll so the frontend doesn't have to worry about different method names.\n     */\n    function isApprovedForAll(address _owner, address _operator)\n        public\n        view\n        returns (bool)\n    {\n        if (owner() == _owner && _owner == _operator) {\n            return true;\n        }\n\n        ProxyRegistry proxyRegistry = ProxyRegistry(proxyRegistryAddress);\n        if (\n            owner() == _owner &&\n            address(proxyRegistry.proxies(_owner)) == _operator\n        ) {\n            return true;\n        }\n\n        return false;\n    }\n\n    /**\n     * Hack to get things to work automatically on OpenSea.\n     * Use isApprovedForAll so the frontend doesn't have to worry about different method names.\n     */\n    function ownerOf(uint256 _tokenId) public view returns (address _owner) {\n        return owner();\n    }\n\n    /**\n    * Get the max supply of each individual sale option.\n    */\n    function getTokenMaxSupply() private view returns (uint256) {\n        return MAX_TOKEN_SUPPLY;\n    }\n\n    /**\n    * Get the max supply of each individual sale option.\n    */\n    function getSaleOptionsTotal() private view returns (uint256) {\n        return NUM_SALE_OPTIONS;\n    }\n\n}\n",
  "sourcePath": "/Users/tylerfitzgerald/projects/tile-nft/contracts/TileFactory.sol",
  "compiler": {
    "name": "solc",
    "version": "0.8.11+commit.d7f03943.Emscripten.clang"
  },
  "schemaVersion": "3.3.4",
  "updatedAt": "2021-12-28T15:28:54.054Z",
  "networkType": "ethereum",
  "devdoc": {
    "kind": "dev",
    "methods": {
      "canMint(uint256)": {
        "details": "Returns whether the option ID can be minted. Can return false if the developer wishes to restrict a total supply per option ID (or overall)."
      },
      "mint(uint256,address)": {
        "details": "Mints asset(s) in accordance to a specific address with a particular \"option\". This should be callable only by the contract owner or the owner's Wyvern Proxy (later universal login will solve this). Options should also be delineated 0 - (numOptions() - 1) for convenient indexing.",
        "params": {
          "_optionId": "the option id",
          "_toAddress": "address of the future owner of the asset(s)"
        }
      },
      "owner()": {
        "details": "Returns the address of the current owner."
      },
      "renounceOwnership()": {
        "details": "Leaves the contract without owner. It will not be possible to call `onlyOwner` functions anymore. Can only be called by the current owner. NOTE: Renouncing ownership will leave the contract without an owner, thereby removing any functionality that is only available to the owner."
      },
      "tokenURI(uint256)": {
        "details": "Returns a URL specifying some metadata about the option. This metadata can be of the same structure as the ERC721 metadata."
      },
      "transferOwnership(address)": {
        "details": "Transfers ownership of the contract to a new account (`newOwner`). Can only be called by the current owner."
      }
    },
    "version": 1
  },
  "userdoc": {
    "kind": "user",
    "methods": {
      "isApprovedForAll(address,address)": {
        "notice": "Hack to get things to work automatically on OpenSea. Use isApprovedForAll so the frontend doesn't have to worry about different method names."
      },
      "name()": {
        "notice": "Returns the name of this factory."
      },
      "numOptions()": {
        "notice": "Number of options the factory supports."
      },
      "ownerOf(uint256)": {
        "notice": "Hack to get things to work automatically on OpenSea. Use isApprovedForAll so the frontend doesn't have to worry about different method names."
      },
      "supportsFactoryInterface()": {
        "notice": "Indicates that this is a factory contract. Ideally would use EIP 165 supportsInterface()"
      },
      "symbol()": {
        "notice": "Returns the symbol for this factory."
      },
      "transferFrom(address,address,uint256)": {
        "notice": "Hack to get things to work automatically on OpenSea. Use transferFrom so the frontend doesn't have to worry about different method names."
      }
    },
    "version": 1
  }
}